:100B8400434F52524543542050494E00444F4F5214
:100B9400204F50454E45440057524F4E4720504930
:100BA4004E0054525920414741494E00456E7465E8
:0B0BB400722050617373776F72640051
:100C4A00060F313233343500021700000215000056
:070BE900120C5B7F017E008E
:100BF000E4FDFCC3ED9FEC9E5015E4FBFA0BBB003B
:0F0C0000010ABA04F8BBFBF50DBD00010C80E43E
:010C0F0022C2
:0E0C5B008FA0C2B3C2B7D2B4120BECC2B42247
:0E0C69008FA0D2B3C2B7D2B4120BECC2B42229
:100C1000D28EE4FDFCC3ED9FEE6480F8EC64809816
:100C2000500C308FFDC28F0DBD00010C80E7C28ECD
:010C300022A1
:100B1F00D290D291D292D293C2B0D2B1D2B220900F
:100B2F00037F31222091037F34222092037F3722CB
:100B3F002093037F2A22D2B0C2B1D2B22090037F7A
:100B4F0032222091037F35222092037F3822209377
:100B5F00037F3022D2B0D2B1C2B22090037F3322B2
:100B6F002091037F36222092037F39222093037F27
:050B7F0023227FFF228C
:100C31007F38120BE97F0E120BE9120BE97F80124C
:090C41000C5B7F017E00020BF048
:100BBF008B2A8A2B892CAB2AAA2BA92C120A7AFFF3
:100BCF006017120C697F0A7E00120BF07401252C3E
:0A0BDF00F52CE4352BF52B80DD2208
:10080000781B7C007D007BFF7A0B79B07E007F0F28
:10081000120A54900000120C31AF82741B2FF8E6BC
:10082000FF600D120C69A37F147E00120BF080E9AB
:100830007FC0120C5B120B1FBFFF05120B1F80F550
:10084000120B1F8F087F327E00120BF0AF08120CC4
:1008500069120B1FBFFF05120B1F80F5120B1F8FB4
:1008600009120C697F327E00120BF0120B1FBFFFC2
:1008700005120B1F80F5120B1F8F0A120C697F32B5
:100880007E00120BF0120B1FBFFF05120B1F80F52D
:10089000120B1F8F0B120C697F327E00120BF012AD
:1008A0000B1FBFFF05120B1F80F5120B1F8F0C12C1
:1008B0000C69120C31E50F65086003020961E5104F
:1008C00065096003020961E511650A6003020961B7
:1008D000E512650B6003020961E513650C60030214
:1008E00009617BFF7A0B7984120BBF7F01120C5BCD
:1008F0007F327E00120BF07BFF7A0B7990120BBFD8
:10090000758920758DE9C294750D00750E0EC3E5CD
:100910000E9464E50D648094804008750D00750E9A
:100920000E800B7405250EF50EE4350DF50DE4F57E
:1009300019F51AD294AF0EAE0D120C10C2947F6846
:100940007E01120C10051AE51A70020519C394C82D
:10095000E5196480948040DB7F647E00120BF08098
:10096000AD7BFF7A0B799C120BBF7FC0120C5B7FB3
:10097000647E00120BF07F01120C5B7BFF7A0B7917
:04098000A6020BBF01
:03000000020A935E
:0C0A9300787FE4F6D8FD75812C020ADAA9
:10098400E709F608DFFA8046E709F208DFFA803E55
:1009940088828C83E709F0A3DFFA8032E309F60842
:1009A400DFFA8078E309F208DFFA807088828C83AA
:1009B400E309F0A3DFFA806489828A83E0A3F6085E
:1009C400DFFA805889828A83E0A3F208DFFA804C38
:1009D40080D280FA80C680D4806980F2803380100F
:1009E40080A680EA809A80A880DA80E280CA803378
:1009F40089828A83ECFAE493A3C8C582C8CCC583F0
:100A0400CCF0A3C8C582C8CCC583CCDFE9DEE780BF
:100A14000D89828A83E493A3F608DFF9ECFAA9F03E
:100A2400EDFB2289828A83ECFAE0A3C8C582C8CC94
:100A3400C583CCF0A3C8C582C8CCC583CCDFEADEAD
:100A4400E880DB89828A83E493A3F208DFF980CC0F
:100A540088F0EF60010E4E60C388F0ED2402B40408
:100A64000050B9F582EB2402B4040050AF232345AF
:060A740082239009D473F7
:100A7A00BB010689828A83E0225002E722BBFE027A
:090A8A00E32289828A83E49322AD
:100A9F00020800E493A3F8E493A34003F68001F265
:100AAF0008DFF48029E493A3F85407240CC8C33358
:100ABF00C4540F4420C8834004F456800146F6DF27
:100ACF00E4800B0102040810204080900C4AE47E61
:100ADF00019360BCA3FF543F30E509541FFEE4931C
:100AEF00A360010ECF54C025E060A840B8E493A3E3
:100AFF00FAE493A3F8E493A3C8C582C8CAC583CA0E
:100B0F00F0A3C8C582C8CAC583CADFE9DEE780BEC5
:010C5A000099
:00000001FF
